:100000000C9466000C9487000C9487000C94870075
:100010000C9487000C9487000C9487000C94870044
:100020000C9487000C9487000C9487000C94870034
:100030000C9487000C9487000C9487000C94870024
:100040000C9487000C94D7000C9487000C948700C4
:100050000C9487000C9487000C9487000C94870004
:100060000C9487000C9487000C9487000C948700F4
:100070000C9487000C9487000C9487000C948700E4
:100080000C9487000C9487000C9487000C948700D4
:100090000C94B7020C9487000C9487000C94870092
:1000A0000C9487000C9487000C9487000C948700B4
:1000B0000C9487000C9487000C9487000C948700A4
:1000C0000C9487000C9487000C94870011241FBEA9
:1000D000CFEFD1E2DEBFCDBF00E00CBF12E0A0E069
:1000E000B2E0E0E2FFE000E00BBF02C007900D923B
:1000F000A034B107D9F712E0A0E4B2E001C01D922C
:10010000A43DB107E1F70E948A010C948E070C947C
:100110000000009769F483B1282F30E096E036950F
:1001200027959A95E1F7209530952170307010C091
:10013000019719F020E030E00BC083B1282F33275E
:1001400027FD3095209530952227330F221F332726
:10015000C9010895009711F42E980895019709F4A4
:100160002F980895009711F42E9A0895019709F495
:100170002F9A0895CF93DF93EC010E948900892B79
:1001800021F4CE010E94AA0003C0CE010E94B20059
:10019000DF91CF91089584B1806C84B980E090E0C4
:1001A0000E94B20081E090E00E94B20008951F9288
:1001B0000F920FB60F920BB60F9211248F939F934D
:1001C000AF93BF93EF93FF938091420290914302CC
:1001D000A0914402B09145020196A11DB11D8093EA
:1001E000420290934302A0934402B0934502E8E890
:1001F000F0E08081918184589F4F91838083FF91AB
:10020000EF91BF91AF919F918F910F900BBE0F9087
:100210000FBE0F901F90189583E0809381008CE7AC
:1002200090E0909389008093880082E080936F0033
:10023000109285001092840078940895009711F42C
:1002400080EC08C08130910511F481EC03C0029765
:1002500019F482EC80937C00209142023091430299
:100260004091440250914502265F3F4F4F4F5F4FF0
:100270008091420290914302A0914402B0914502C4
:1002800082179307A407B5079CF380917A008061D9
:1002900080937A0080917A00806480937A00209124
:1002A0004202309143024091440250914502265F40
:1002B0003F4F4F4F5F4F8091420290914302A09178
:1002C0004402B091450282179307A407B5079CF337
:1002D00080917A0084FFFCCF2091780030917900E2
:1002E000C901089580B38E6080BB86E880937A0050
:1002F00008959D98959A08955298539A60E071EEEA
:1003000080E090E00E940C0380E092E00E948B036A
:1003100078940895CF92DF92EF92FF920F931F93FC
:10032000CF93DF930E94CB000E947C0183E08093F7
:1003300081008CE790E0909389008093880082E0B0
:1003400080936F001092850010928400789480B39F
:100350008E6080BB86E880937A009D98959AC3E171
:10036000D2E080E090E00E94BA00209142023091F9
:10037000430240914402509145022C503E4F4F4F52
:100380005F4F8091420290914302A0914402B0914C
:10039000450282179307A407B5079CF381E090E01C
:1003A0000E94BA00C0904002D090410280E090E0EC
:1003B0000E941E017C0181E090E00E941E018C01E0
:1003C00082E090E00E941E012DB73EB72A503040D7
:1003D0000FB6F8943EBF0FBE2DBFEDB7FEB73196F6
:1003E000ADB7BEB71296DC93CE931197D382C2827B
:1003F000F582E48217830683918780870E947903C0
:100400008091400290914102019690934102809325
:1004100040022DB73EB7265F3F4F0FB6F8943EBF60
:100420000FBE2DBF04C00E946F020E94E1020E9415
:100430003202181619060CF094CFF5CFAC0120E06B
:1004400030E00CC08091C80085FFFCCFFA01E20FBC
:10045000F31F80818093CE002F5F3F4F2617370711
:100460008CF308959091C6028091C702981719F4F1
:1004700020E030E017C09091C6028091C702981723
:1004800038F48091C7029091C602282F30E008C04E
:100490008091C7029091C602282F30E020583F4F2C
:1004A000291B3109C90108951F93182F0E94320298
:1004B0008F37910591F0E091C702F0E0EA5BFD4FC4
:1004C00010838091C7028F3719F41092C70205C0BC
:1004D0008091C7028F5F8093C7021F91089590910A
:1004E000C6028091C702981711F4EFEF12C0E09195
:1004F000C602F0E0EA5BFD4FE0818091C6028F37D3
:1005000019F41092C60205C08091C6028F5F8093D5
:10051000C6028E2F0895EF92FF920F931F93CF93F1
:10052000DF937C01EB019091C6028091C70298177E
:1005300011F480E015C00E9432028C01C817D9075F
:100540000CF48E01C0E0D0E007C00E946F02F701FA
:10055000EC0FFD1F80832196C017D107B4F3802FC5
:10056000DF91CF911F910F91FF90EF9008951F920F
:100570000F920FB60F920BB60F9211242F933F9349
:100580004F935F936F937F938F939F93AF93BF939B
:10059000EF93FF938091CE000E945402FF91EF9160
:1005A000BF91AF919F918F917F916F915F914F918B
:1005B0003F912F910F900BBE0F900FBE0F901F9089
:1005C0001895DF93CF930F920F92CDB7DEB7282FF8
:1005D000AE014F5F5F4F8A3039F48DE089832A8303
:1005E000CA0162E070E004C08983CA0161E070E082
:1005F0000E941E0280E090E00F900F90CF91DF915B
:1006000008950E943202892BE1F30E946F028D301F
:1006100009F48AE090E0089580E48093C80088E9B6
:100620008093C90086E08093CA008FEF8093CE004C
:100630001092C6021092C70288E090E09093CD001D
:100640008093CC0081EE92E061E073E00E942D0384
:100650009093C9028093C80208950F931F93CF937C
:10066000DF938C01EB01009731F46115710519F4EA
:1006700020E030E038C081E090E06EE070E00E9461
:10068000C605FC019C01009771F180E883832097E7
:1006900071F0D387C28781E883838091CA029091E9
:1006A000CB02892B21F4F093CB02E093CA0201150F
:1006B0001105C9F01187008783818260838380914F
:1006C000CC029091CD02892B71F4F093CD02E0938E
:1006D000CC028091CE029091CF02892B21F4F0932D
:1006E000CF02E093CE02C901DF91CF911F910F910C
:1006F0000895DF93CF93CDB7DEB7FE0136966191B3
:1007000071918091CC029091CD02AF010E94C00303
:10071000CF91DF9108950F931F93CF93DF938C01B7
:10072000E091CC02F091CD02838181FF21C0C0E035
:10073000D0E00DC0E091CC02F091CD022085318552
:10074000BF01F9011995892B11F0CFEFDFEFF80107
:1007500081918F01882371F7E091CC02F091CD0255
:10076000208531858AE0BF01F9011995892B11F0A7
:10077000CFEFDFEFCE01DF91CF911F910F91089561
:100780002F923F924F925F926F927F928F929F92A1
:10079000AF92BF92CF92DF92EF92FF920F931F938F
:1007A000DF93CF93CDB7DEB72B970FB6F894DEBFAC
:1007B0000FBECDBF3C012B015A01FC0117821682EE
:1007C000838181FD03C06FEF7FEFC6C19AE0892E60
:1007D0001E010894211C311CF3012381F20123FD29
:1007E000859123FF81912F01882309F4B2C18532BD
:1007F00039F423FD859123FF81912F01853229F45E
:1008000090E0B3010E940407E7CF982FFF24EE2465
:100810009924FFE1FF15D0F09B3269F09C3228F457
:10082000903259F0933291F40EC09D3249F09033DA
:1008300069F441E024C052E0F52A84E0F82A28C097
:1008400098E0F92A25C0E0E1FE2A22C0F7FC29C081
:10085000892F80538A3070F4F6FE05C0989C902C46
:100860001124980E15C0E89CE02C1124E80EF0E24B
:10087000FF2A0EC09E3229F4F6FC6BC140E4F42A34
:1008800007C09C3619F450E8F52A02C0983649F49E
:10089000F20123FD959123FF91912F01992309F0F6
:1008A000B8CF892F8554833018F08052833038F4C4
:1008B00044E050E0A40EB51E5FE359830FC09336A9
:1008C00031F0933779F0933509F056C020C0F50127
:1008D0008081898342E050E0A40EB51E610101E0F1
:1008E00010E012C0F501C080D180F6FC03C06FEFAC
:1008F0007FEF02C0692D70E042E050E0A40EB51E0B
:10090000C6010E94F9068C015FE7F52214C0F501CB
:10091000C080D180F6FC03C06FEF7FEF02C0692D6D
:1009200070E042E050E0A40EB51EC6010E94E7064A
:100930008C0150E8F52AF3FE07C01AC080E290E06F
:10094000B3010E940407EA948E2D90E0081719075E
:10095000A8F30EC0F601F7FC8591F7FE81916F01B7
:1009600090E0B3010E940407E110EA9401501040A6
:100970000115110579F7EAC0943611F0993669F539
:10098000F7FE08C0F501208131814281538184E066
:1009900090E00AC0F501808191819C01442737FDD8
:1009A0004095542F82E090E0A80EB91E9FE6F922F0
:1009B00057FF09C050954095309521953F4F4F4FB7
:1009C0005F4FE0E8FE2ACA01B901A1012AE030E048
:1009D0000E943007D82ED21840C0953729F41F2D19
:1009E0001F7E2AE030E01DC01F2D197F9F3661F069
:1009F000903720F4983509F0ACC00FC0903739F02B
:100A0000983709F0A6C004C028E030E00AC01061A1
:100A100014FD146020E130E004C014FD166020E1F4
:100A200032E017FF08C0F5016081718182819381F6
:100A300044E050E008C0F50180819181BC0180E074
:100A400090E042E050E0A40EB51EA1010E943007E4
:100A5000D82ED2188FE7F82EF122F6FE0BC05EEFEB
:100A6000F522D91438F4F4FE07C0F2FC05C08FEE6D
:100A7000F82202C01D2D01C0192DF4FE0DC0FE018B
:100A8000ED0DF11D8081803319F499EEF92208C033
:100A90001F5FF2FE05C003C08F2D867809F01F5F2F
:100AA0000F2DF3FC14C0F0FE0FC01E1510F09D2C8E
:100AB0000BC09D2C9E0C911A1E2D06C080E290E06A
:100AC000B3010E9404071F5F1E15C0F304C01E156A
:100AD00010F4E11A01C0EE2404FF0FC080E390E09F
:100AE000B3010E94040702FF1DC001FD03C088E797
:100AF00090E00EC088E590E00BC0802F867891F0E2
:100B000001FF02C08BE201C080E2F7FC8DE290E0C1
:100B1000B3010E94040706C080E390E0B3010E9485
:100B200004079A94D914C0F3DA94F101ED0DF11D84
:100B3000808190E0B3010E940407DD20A9F706C080
:100B400080E290E0B3010E940407EA94EE20C1F72E
:100B500043CEF30166817781CB012B960FB6F894D3
:100B6000DEBF0FBECDBFCF91DF911F910F91FF90E0
:100B7000EF90DF90CF90BF90AF909F908F907F903D
:100B80006F905F904F903F902F9008950F931F9319
:100B9000CF93DF93689F8001699F100D789F100DA0
:100BA0001124C8010E94E205EC01009729F060E0E1
:100BB00070E0A8010E94F206CE01DF91CF911F9153
:100BC0000F910895CF93DF93BC018230910510F40B
:100BD00062E070E0A091D202B091D302ED01E0E0BA
:100BE000F0E040E050E021C08881998186179707A6
:100BF00069F48A819B81309719F09383828304C0C2
:100C00009093D3028093D202FE0134C06817790713
:100C100038F44115510519F08417950708F4AC0113
:100C2000FE018A819B819C01E9012097E9F641152B
:100C30005105A9F1CA01861B970B049708F4BA0164
:100C4000E0E0F0E02AC08D919C9111978417950700
:100C5000F9F46417750781F412968D919C9113979E
:100C6000309719F09383828304C09093D3028093CA
:100C7000D202FD0132964FC0CA01861B970BFD01BF
:100C8000E80FF91F6193719302978D939C9343C072
:100C9000FD01828193819C01D9011097A1F6809179
:100CA000D0029091D102892B41F480913B02909126
:100CB0003C029093D1028093D00240913D0250912A
:100CC0003E024115510541F44DB75EB7809139029E
:100CD00090913A02481B590B2091D0023091D102D9
:100CE00024173507B0F4CA01821B930B86179707A8
:100CF00080F0AB014E5F5F4F8417950750F0420FB5
:100D0000531F5093D1024093D002F9016193719324
:100D100002C0E0E0F0E0CF01DF91CF910895CF93E2
:100D2000DF93009709F450C0EC0122971B821A82CE
:100D3000A091D202B091D302109709F140E050E0A7
:100D4000AC17BD0708F1BB83AA83FE012191319145
:100D5000E20FF31FAE17BF0779F48D919C911197A5
:100D6000280F391F2E5F3F4F3983288312968D91AC
:100D70009C9113979B838A834115510571F4D093FD
:100D8000D302C093D20220C012968D919C911397EA
:100D9000AD01009711F0DC01D3CFFA01D383C283F8
:100DA00021913191E20FF31FCE17DF0769F488819B
:100DB0009981280F391F2E5F3F4FFA01318320831D
:100DC0008A819B8193838283DF91CF910895FC0177
:100DD0000590615070400110D8F7809590958E0F66
:100DE0009F1F0895DC0101C06D9341505040E0F712
:100DF0000895FC016150704001900110D8F7809572
:100E000090958E0F9F1F08950F931F93CF93DF939D
:100E10008C01EB018B8181FF1BC082FF0DC02E81F5
:100E20003F818C819D812817390764F4E881F9811D
:100E30000193F983E88306C0E885F985802F199529
:100E4000892B31F48E819F8101969F838E8302C00E
:100E50000FEF1FEFC801DF91CF911F910F91089500
:100E6000FA01AA27283051F1203181F1E8946F93DB
:100E70006E7F6E5F7F4F8F4F9F4FAF4FB1E03ED081
:100E8000B4E03CD0670F781F891F9A1FA11D680F1F
:100E9000791F8A1F911DA11D6A0F711D811D911D52
:100EA000A11D20D009F468943F912AE0269F1124C7
:100EB0003019305D3193DEF6CF010895462F47702B
:100EC000405D4193B3E00FD0C9F7F6CF462F4F7086
:100ED000405D4A3318F0495D31FD4052419302D0E4
:100EE000A9F7EACFB4E0A69597958795779567958A
:100EF000BA95C9F700976105710508959B01AC018A
:100F00000A2E06945795479537952795BA95C9F7B0
:100F1000620F731F841F951FA01D0895F894FFCFC3
:100F200053657269616C20496E697469616C697A94
:100F300065640068656C6C6F20776F726C64202547
:100F400069202D2D2D2D204144433D2825692C203D
:100F500025692C202569290A002000D40200000000
:00000001FF
